:100000000C94AC010C94DD010C94DD010C94DD0129
:100010000C94DD010C94DD010C94DD010C94DD01E8
:100020000C94DD010C94DD010C94DD010C94DD01D8
:100030000C94DD010C94DD010C94DD010C94DD01C8
:100040000C94DD010C94DD010C94DD010C94DD01B8
:100050000C94DD010C94DD010C94DD010C94800600
:100060000C94DD010C94DD010C94DD010C94DD0198
:100070000C94DD010C94DD010C94DD010C94DD0188
:100080000C94DD010C94DD010C94DD010C94DD0178
:100090000C94DD010C94DD010C94DD010C94DD0168
:1000A0000C94DD010C94DD010C94DD010C94DD0158
:1000B0000C94DD010C94DD010C94DD010C94DD0148
:1000C0000C94DD010C94DD010C94DD010C94DD0138
:1000D0000C94DD010C94DD010C94DD010C94DD0128
:1000E0000C94DD010C94FD010C9443030C941C0250
:1000F0000C947A060C940B020C9407020C944203A5
:100100000C9412020C9418020C943D020C942202DE
:100110000C9415030C943E020C942A020C940E0AC3
:100120000C940F020C9442020C9430020C94340292
:100130000C9403020C9426020C94380200407A10AE
:10014000F35A00A0724E18090010A5D4E80000E888
:100150007648170000E40B54020000CA9A3B0000E6
:1001600000E1F505000080969800000040420F0075
:100170000000A08601000000102700000000E80336
:10018000000000006400000000000A000000000001
:100190000100000000002C76D888DC674F0823DFC0
:1001A000C1DFAE59E1B1B796E5E3E453C63AE65193
:1001B000997696E8E6C28426EB898C9B62ED407CBA
:1001C0006FFCEFBC9C9F40F2BAA56FA5F490055A56
:1001D0002AF75C936B6CF9676DC11BFCE0E40D477B
:1001E000FEF520E6B500D0ED902E0300943577059E
:1001F0000080841E080000204E0A000000C80C3356
:100200003333330F986E12831141EF8D2114893BE4
:10021000E65516CFFEE6DB18D1844B381BF77C1D64
:10022000901DA4BBE424203284725E228100C9F1B7
:1002300024ECA1E53D2700002100240027002A002E
:100240002D003000330001010000040107010A0104
:1002500000002200250028002B002E003100340071
:1002600002010000050108010B010000200023002D
:10027000260029002C002F0032000001000003019D
:100280000601090105050505070508080808020219
:1002900002020A0A08080404040401010101010120
:1002A00001010303030303030303040707070C0C03
:1002B0000C0C0C0C0C0C02020202060606060606CA
:1002C00006060B0B0B0B0B0B0B0B0102102020086F
:1002D00008102040102040800201020108040201A1
:1002E0000102040810204080804020100804020110
:1002F0008004020180402010080402010804020169
:1003000001020408102040800102040810204080EF
:1003100000000A0B02090C0D0E080703040100007F
:1003200000000000000000000000000000000000CD
:10033000000000000000000000000000121110008A
:1003400000000000000000000000000000000000AD
:100350000000000000000E0A11241FBECFEFD1E202
:10036000DEBFCDBF00E00CBF12E0A0E0B2E0E6EDE2
:10037000F0E200E00BBF02C007900D92A23FB10770
:10038000D9F723E0A2EFB2E001C01D92AC31B20771
:10039000E1F711E0CCEAD1E000E006C021970109C5
:1003A000802FFE010E94440ECB3AD10780E008075F
:1003B000A9F70E94CA060C9469100C9400008150A1
:1003C000823108F05AC0E82FF0E08827E551FE4F4F
:1003D0008F4F0C94440E0B020F02FD010302070223
:1003E0003D02120218021C02220226022A023002D8
:1003F00034023D0238023E024202809180008F7733
:10040000809380000895809180008F7DF9CF809146
:100410008000877FF5CF84B58F7784BD089584B53C
:100420008F7DFBCF8091B0008F778093B0000895CF
:100430008091B0008F7DF9CF809190008F7780936D
:1004400090000895809190008F7DF9CF8091900069
:10045000877FF5CF8091A0008F778093A0000895CB
:100460008091A0008F7DF9CF8091A000877FF5CF8C
:10047000809120018F778093200108958091200141
:100480008F7DF9CF80912001877FF5CFCF93DF93C8
:10049000282F30E0F901E05FFC4F8491F901E65329
:1004A000FD4FD491F901EC57FD4FC491CC23A1F03D
:1004B00081110E94DF01EC2FF0E0EE0FFF1FE659E3
:1004C000FD4FA591B491EC91ED2381E090E009F40A
:1004D00080E0DF91CF91089580E090E0FACF1F9304
:1004E000CF93DF93282F30E0F901E05FFC4F849138
:1004F000F901E653FD4FD491F901EC57FD4FC4913A
:10050000CC23A9F0162F81110E94DF01EC2FF0E01F
:10051000EE0FFF1FE05BFD4FA591B4918FB7F894EC
:10052000EC91111108C0D095DE23DC938FBFDF91D1
:10053000CF911F910895DE2BF8CFCF93DF9390E0FA
:10054000FC01E653FD4F24918C579D4FFC01849193
:100550008823C9F090E0880F991FFC01EA5CFD4FE9
:10056000A591B491FC01E05BFD4FC591D49161115F
:100570000DC09FB7F8948C91209582238C9388812D
:10058000282328839FBFDF91CF910895623051F4D3
:100590009FB7F8943C91822F809583238C93E881B8
:1005A0002E2BEFCF8FB7F894EC912E2B2C938FBF7F
:1005B000EACF90917B00977F90937B008653806475
:1005C00080937C0080917A00806480937A0080918F
:1005D0007A0086FDFCCF8091780090917900089593
:1005E0003FB7F8948091FC029091FD02A091FE0229
:1005F000B091FF0226B5A89B05C02F3F19F00196C8
:10060000A11DB11D3FBFBA2FA92F982F8827BC016C
:10061000CD01620F711D811D911D42E0660F771F94
:10062000881F991F4A95D1F70895AF92BF92CF9234
:10063000DF92EF92FF920F931F93CF93DF936C01A2
:100640007B018B01040F151FEB015E01AE18BF0883
:10065000C017D10759F06991D601ED91FC91019035
:10066000F081E02DC6011995892B79F7C501DF913D
:10067000CF911F910F91FF90EF90DF90CF90BF909F
:10068000AF900895089590E080E008951092F502EB
:1006900060E086E00C946F020F931F93CF93DF937B
:1006A000EC0188819981009759F02A813B812617B6
:1006B000370730F081E0DF91CF911F910F910895BE
:1006C0008B016F5F7F4F0E94780F009759F09983DD
:1006D00088831B830A832C813D81232B59F7FC01DE
:1006E0001082E8CF80E0E7CFEF92FF920F931F9345
:1006F000CF93DF936115710541F480E0DF91CF91D5
:100700001F910F91FF90EF90089541155105B1F0A1
:100710007B01EC010C811D81040F151FB8010E94A3
:100720004C03882351F3288139818C819D81B70145
:10073000820F931F0E9462101D830C8381E0DECF25
:10074000CF93DF93EC0188819981009711F00E948B
:10075000EF0E198218821D821C821B821A82DF9181
:10076000CF910895CF93DF93EC01FB014481558134
:10077000608171810E947403811103C0CE010E94C7
:10078000A003CE01DF91CF910895EF92FF920F93D6
:100790001F93CF93DF93EC017B018A01BA010E9482
:1007A0004C0381110BC0CE010E94A003CE01DF914A
:1007B000CF911F910F91FF90EF9008951D830C83AF
:1007C000B701888199810E946210F0CFEF92FF9269
:1007D0000F931F93CF93DF93CDB7DEB762970FB61A
:1007E000F894DEBF0FBECDBF8C01CB01F8011182A2
:1007F000108213821282158214824AE09E012F5FBA
:100800003F4F7901B9010E944A0AF7010190002087
:10081000E9F73197AF014E195F09B701C8010E948E
:10082000C50362960FB6F894DEBF0FBECDBFDF9151
:10083000CF911F910F91FF90EF900895FC011182CD
:1008400010821382128215821482FB010190002013
:10085000E9F73197AF01461B570B0C94C503FC0118
:1008600080819181009711F00C94EF0E0895FB01A7
:10087000DC0111961C921E9213961C921E921297E6
:1008800015961C921E9214978617970749F060815F
:1008900071816115710521F0448155810C94C50366
:1008A0000895CF93DF93EC0160E08E810E946F0288
:1008B00061E08E810E946F0260E08E810E946F0273
:1008C0008BE891E00197F1F7DF91CF910895CF92F6
:1008D000DF92EF92FF920F931F93CF93DF936C0100
:1008E0007C0187E0E80EF11CD0E0C0E0062F10E0AC
:1008F000B8010C2E02C0759567950A94E2F76170F5
:10090000F70181917F010E946F022196C430D105C9
:1009100079F7C601DF91CF911F910F91FF90EF9072
:10092000DF90CF900C945104CF92DF92EF92FF9220
:100930000F931F93CF93DF93EC01F62E642F8C81DE
:100940000E946F028D818F3F19F060E00E946F025C
:100950000F2D10E08F8584FF25C06E0187E0C80E43
:10096000D11CF12CE12CB8010E2C02C075956795B5
:100970000A94E2F76170F60181916F010E946F02A3
:10098000FFEFEF1AFF0A88E0E816F10461F7CE01E5
:10099000DF91CF911F910F91FF90EF90DF90CF905B
:1009A0000C945104B80184E0759567958A95E1F738
:1009B000CE010E9467046F2DCE01DF91CF911F9170
:1009C0000F91FF90EF90DF90CF900C94670440E080
:1009D000682F80E093E00C94940481E00E94E70487
:1009E0008BE39FE10197F1F708958091F40288234A
:1009F00069F060E087E30E946F021092F40283E0E6
:100A00000E944602892B11F40C94ED04089560E0D5
:100A100084E00E946F0260E085E00E946F02809196
:100A2000F202882321F00E94ED041092F202089550
:100A3000CF93DF93823029F490910F0398609093C5
:100A40000F03809313031092140380E48093150323
:100A500080E18093160380E58093170361E0809125
:100A600004030E949D02809105038F3F19F061E00D
:100A70000E949D0261E0809106030E949D02C0E0F9
:100A8000D3E09E012050334080910F0384FD0BC0C2
:100A900084E090E021962817390744F461E08E81C4
:100AA0000E949D02EECF88E090E0F4CF8BE39DE0C2
:100AB0000197F1F760E0809104030E946F0260E00B
:100AC000809106030E946F02809105038F3F19F009
:100AD00060E00E946F0280910F0384FD34C063E0E8
:100AE00080E093E00E946704CBE4D6E4CE01019756
:100AF000F1F763E080E093E00E9467042197F1F74B
:100B000063E080E093E00E94670483E592E0019750
:100B1000F1F762E080E093E00E94670480910F03A8
:100B200080620E94E70484E0809310038CE00E94BE
:100B3000E7040E94ED0482E08093110386E0DF91D8
:100B4000CF910C94E70480620E94E7048BE496E462
:100B50000197F1F780910F0380620E94E70483E51B
:100B600092E00197F1F780910F0380620E94E70401
:100B7000D5CF8F929F92AF92BF92CF92DF92EF929A
:100B8000FF92CF93DF937C01EB016A010E94ED0499
:100B9000E1E0809113038111E0E0E195F0E0E050A5
:100BA000FD4F848980680E94E704F70144815581E4
:100BB0006081718180E093E00E9415038C819D81AA
:100BC000892BD1F0E881F98180818823A9F0E09117
:100BD0001303E23008F042C0E150F0E0E050FD4F76
:100BE000848980680E94E7044C815D8168817981F5
:100BF00080E093E00E941503C114D10489F10D2C0B
:100C0000000CEE08FF080E94F0024B015C010E94FC
:100C1000F002681979098A099B09683E73408105C9
:100C20009105A8F3F1E0CF1AD108E108F10828EE08
:100C3000820E23E0921EA11CB11CC114D104E10458
:100C4000F10429F7DF91CF91FF90EF90DF90CF90E3
:100C5000BF90AF909F908F900C94ED04E1E0BDCFDA
:100C6000DF91CF91FF90EF90DF90CF90BF90AF904A
:100C70009F908F900895CF93DF93CDB7DEB72C97D9
:100C80000FB6F894DEBF0FBECDBF61E084E00E94D6
:100C90006F0261E085E00E946F028091F202811193
:100CA00020C062E172E0CE0107960E941E0460E25D
:100CB00072E0CE0101960E941E0450E040E0BE01A9
:100CC000695F7F4FCE0101960E94B905CE01019662
:100CD0000E942F04CE0107960E942F0481E080938A
:100CE000F2022C960FB6F894DEBF0FBECDBFDF9197
:100CF000CF91089541E00E94940481E090E008952E
:100D00001F920F920FB60F9211242F933F938F9340
:100D10009F93AF93BF938091F8029091F902A091B5
:100D2000FA02B091FB023091F70223E0230F2D3736
:100D300058F50196A11DB11D2093F7028093F8028A
:100D40009093F902A093FA02B093FB028091FC0207
:100D50009091FD02A091FE02B091FF020196A11DAB
:100D6000B11D8093FC029093FD02A093FE02B0930C
:100D7000FF02BF91AF919F918F913F912F910F9063
:100D80000FBE0F901F90189526E8230F0296A11D05
:100D9000B11DD2CFCF93DF93CDB7DEB7E3970FB6B8
:100DA000F894DEBF0FBECDBF789484B5826084BD59
:100DB00084B5816084BD85B5826085BD85B581605F
:100DC00085BD80916E00816080936E0010928100DD
:100DD0008091810082608093810080918100816098
:100DE0008093810080918000816080938000809159
:100DF000B10084608093B1008091B00081608093E5
:100E0000B000809191008260809391008091910068
:100E10008160809391008091900081608093900028
:100E20008091A10082608093A1008091A1008160E7
:100E30008093A1008091A00081608093A0008091A8
:100E40002101826080932101809121018160809342
:100E500021018091200181608093200180917A009E
:100E6000846080937A0080917A00826080937A0017
:100E700080917A00816080937A0080917A00806806
:100E800080937A001092C10062E082E00E949D028D
:100E900062E083E00E949D0261E084E00E949D0286
:100EA00061E085E00E949D0261E087E10E949D0271
:100EB00062E088E10E949D0261E089E10E949D025A
:100EC00061E08AE10E949D0261E086E00E949D024D
:100ED00061E086E10E949D0260E088E30E949D023D
:100EE00060E086E30E949D0261E087E30E949D022C
:100EF00082E00E9418050E9446030E9407050E9496
:100F0000F50488248A9483E0982EA12CB12C90E0DB
:100F1000E92E90E0F92E2FEDD22E88E10E944602B4
:100F2000019709F046C061E089E10E946F0261E02B
:100F30008AE10E946F0260E087E10E946F020E94D6
:100F4000F50460E086E10E946F0260E084E00E94A8
:100F50006F026FE272E0CE0182960E941E046EE381
:100F600072E0CE0101960E941E0448EC50E0BE01E2
:100F70006E5D7F4FCE0101960E94B905CE010196AC
:100F80000E942F04CE0182960E942F0481E080935C
:100F9000F6020E94460388E10E944602892BA1F0D6
:100FA0000E944603E114F10409F4B7CF0E94000047
:100FB000B4CF60E089E10E946F0260E08AE10E94A4
:100FC0006F021092F602E7CF83E00E9446028C0186
:100FD00082E00E944602892B09F016C28091F60237
:100FE000811114C28091F502811114C27724739487
:100FF0007092F602012B59F00E9446030E943B06B4
:101000008091F5028823A9F10E943B06CBCF0E9474
:10101000070589E30E94D90224E630E0DC010E9442
:101020004C0EA50194010E94EF0D232B09F031C154
:101030000E9446036FE472E0CE0182960E941E0475
:101040006FE572E0CE0101960E941E0450E040E080
:10105000BE016E5D7F4FCE0101960E94B905CE01A3
:1010600001960E942F04CE0182960E942F040E94B6
:1010700007058091F502882309F494CF86E30E9446
:10108000D902BC01990F880B990B0E94D20C2AE05F
:1010900038E240EA5BE30E94310D20E030E048ECAA
:1010A00052E40E94310D2B013C0120E030E048EC7D
:1010B00051E40E943F0E18160CF012C18091F40208
:1010C000811107C061E087E30E946F0281E0809395
:1010D000F40283E00E944602892B09F06BC069E7A5
:1010E00072E0CE018E960E941E041BA21AA21DA2BF
:1010F0001CA21FA21EA28E010F5F1F4F21E043E022
:10110000C301B2010E942C0A009709F4E4C0FC015B
:1011100001900020E9F73197AF01481B590BBC0142
:10112000CE0182960E94C50366E872E0CE01019668
:101130000E941E04BE016E5D7F4FCE0101960E948B
:10114000B2038C01D8A619A641E050E0BE01685D4B
:101150007F4F0E947403811103C0C8010E94A00345
:1011600041E050E061E972E0C8010E94740381111E
:1011700003C0C8010E94A003B801CE0188960E9456
:10118000370444EF51E0BE01625D7F4FCE01889687
:101190000E94B905CE0188960E942F04CE010196C7
:1011A0000E942F04CE0182960E942F04CE018E96BB
:1011B0000E942F0489E30E94D90224E630E0DC017A
:1011C0000E944C0EA50194010E94EF0D2901C90156
:1011D000892B09F088C00E94460360E087E10E94E5
:1011E0006F020E94F50460E086E10E946F0260E0F9
:1011F00084E00E946F0260E089E10E946F0260E07B
:101200008AE10E946F0263E972E0CE0101960E94BA
:101210001E046FE972E0CE0182960E941E0448EE21
:1012200053E0BE016F5F7F4FCE0182960E94B905E9
:10123000CE0182960E942F04CE0101960E942F04B7
:1012400088E30E94D9028B3F91050CF0BDC061E09C
:1012500086E10E946F0260E972E0CE0182960E94F0
:101260001E0466ED72E0CE0101960E941E0444EF5A
:1012700051E0BE016E5D7F4FCE0101960E94B9051F
:10128000CE0101960E942F04CE0182960E942F0467
:1012900089CE7092F50261E086E00E946F0260E9FB
:1012A00072E0CE0101960E941E046BE672E0CE0150
:1012B00082960E941E0450E040E0BE016F5F7F4FA7
:1012C000CE0182960E94B905CE0182960E942F041B
:1012D000CE010196CACECE0182960E94A00324CFF1
:1012E0000E94F50467CF253031050CF047C080918E
:1012F000F3028823D9F161E087E10E946F02109226
:10130000F302B201CE0182960E94E6036DEA72E01A
:10131000CE0188960E941E04BE016E5D7F4FCE01F5
:1013200088960E94B203BC01CE0101960E94370448
:1013300062EB72E0CE018E960E941E0444EF51E0F3
:10134000BE016F5F7F4FCE018E960E94B905CE0120
:101350008E960E942F04CE0101960E942F04CE018A
:1013600088960E942F04CE01829668CF60E087E1C4
:101370000E946F0281E08093F302C3CF2A303105CF
:10138000F4F461E087E10E946F02B201CE0182961F
:101390000E94E60361EC72E0CE0188960E941E0472
:1013A000BE016E5D7F4FCE0188960E94B203BC01E4
:1013B000CE0101960E94370469EC72E0BBCF60E079
:1013C00087E10E946F023CCF60E086E10E946F02DD
:1013D00060E972E0CE0101960E941E0462EE72E0A6
:1013E000CE0182960E941E0444EF51E0BE016F5F61
:1013F0007F4FCE0182960E94B905CE0182960E944F
:101400002F04CE01019642CF1092F602012B09F46F
:101410002ECEF6CD012B09F0F7CD29CEE0E0F3E09A
:10142000138212828AE092E09183808387E0848332
:101430008FEF858388E0868389E087838AE08087D1
:101440008BE081878CE0828713861486158616864A
:10145000178681E00C941805EF920F931F93CF939A
:10146000DF93E80134E047FD34E1042E000C550B16
:1014700057FF03C0519541955109E32E022F242FA8
:10148000AE010E946F0ACE01DF91CF911F910F91A3
:10149000EF900895BB274A3031F4992322F4BDE23E
:1014A000909581959F4F0C94560ABB27FB015527B9
:1014B000AA27880F991FAA1FA41710F0A41B8395B1
:1014C0005051B9F7A05DAA3308F0A95DA193009728
:1014D00079F7B111B1931192CB010C94C00C8F929A
:1014E0009F92AF92BF92CF92DF92EF92FF920F93B3
:1014F0001F93CF93DF9300D000D000D0CDB7DEB7DD
:101500006A01F22EB02E102FFBE3AF2EA01608F4C6
:101510001BE31F5F012F27E0AE014F5F5F4F0E946B
:10152000E80BBC018981982F9970913009F44EC065
:101530009BE2E1FC04C09E2D9170E0FC49C05E2D51
:101540005071E82FE87083FF55C084E0911101C00D
:1015500083E0EF2DE81B8F1508F0E0E0D6018E2F19
:1015600020E25523C9F1992329F0D6019C93C601A5
:1015700001966C0196012D5F3F4FE2FE33C08EE471
:10158000D6018C9391E411969C93119712968C93AB
:10159000D9018E2F90E281112AC0E20FF32FF11DA5
:1015A00010828EEF9FEF29960FB6F894DEBF0FBE24
:1015B000CDBFDF91CF911F910F91FF90EF90DF9002
:1015C000CF90BF90AF909F908F9008959DE2B7CF3E
:1015D00090E2B5CF2D9381508111FCCFCE0ED11C5E
:1015E000E0E0C1CF8EE6D6018C9391E6CCCF9D93FF
:1015F0008150D1CF482F447082FF3DC084E09111CB
:1016000001C083E08F1510F4EF2DE81BD6018E2F5B
:1016100020E2552309F1992329F0D6019C93C601B4
:1016200001966C0196012D5F3F4FE2FE1BC089E4DD
:10163000D6018C938EE411968C93119786E41296C2
:101640008C93D9018E2F90E2882309F4A6CF9D9325
:101650008150FACF2D9381508111FCCFCE0ED11C39
:10166000E0E0D9CF89E6D6018C938EE611968C9373
:10167000119786E6E4CF9B0177FF02C030E020E0BF
:10168000A1E0B0E0911102C0B0E0A0E0F901319614
:10169000AE0FBF1F8B2C912CBB2009F461C05401ED
:1016A000EFEFAE1ABE0AAA0DBB1DFA161B0619F003
:1016B00014F04F2D4A1B511188C0E3FC59C076012C
:1016C000A42FB0E2A1114FC0C40ED11C992309F47C
:1016D0005BC040E0D6011196F60190836D01552361
:1016E00009F448C0012F060F9A81582F507184FFCA
:1016F00003C0913309F4015010160CF047C00930B3
:1017000008F008E0EEE2FE2E5B01A01AB1088501A8
:101710009194819491082F3F320729F4D601FC92CD
:10172000F60131966F016217730794F102171307E0
:101730007CF5DB01A21BB30BAA24A394B12CAC0E45
:10174000BD1EAA0DBB1D11968C9121503109D601E9
:10175000119628153905F4F0F60180836D01DBCF71
:10176000B12CA12CA0CFF701B1937F01A150AACF3A
:101770009111B0CFD601942F50E302C05D939150E8
:101780009111FCCFC40ED11C40E0ACCF01E0BACF28
:1017900080E3DBCF6217730731F4963388F4953317
:1017A00011F4552369F0F6018083FD01842F90E246
:1017B000811108C0A40FB11D1C9290E080E0F3CE0F
:1017C00081E3F1CF91938150F3CF911183CF8ACFF1
:1017D000283008F027E03327DA01990F311D87FD03
:1017E000916000966105710539F432602E5F3D937A
:1017F00030E32A95E1F708959F3F30F08038710576
:10180000610509F03C5F3C5F3D93913008F08068D2
:10181000911DDF93CF931F930F93FF92EF92192F98
:10182000987F9695E92F96959695E90FFF27EA56AA
:10183000FE4F99273327EE24FF24A701E7010590E7
:101840000894079428F4360FE71EF81E491F511D0F
:10185000660F771F881F991F0694A1F705900794BC
:1018600028F4E70EF81E491F561FC11D770F881F69
:10187000991F661F0694A1F70590079428F4F80EA7
:10188000491F561FC71FD11D880F991F661F771F3D
:101890000694A1F70590079420F4490F561FC71F1F
:1018A000D81F990F661F771F881F0694A9F7849188
:1018B0001095177041F0D695C79557954795F794B1
:1018C000E7941A95C1F7ECE3F1E06894159015914F
:1018D00035916591959105907FE27395E118F10A34
:1018E000430B560BC90BD009C0F7E10CF11E431F87
:1018F000561FC91FD01D7EF4703311F48A95E6CFB0
:10190000E894015030F0080F0AF40027021708F499
:10191000202F2395022F7A3328F079E37D932A959F
:10192000E9F710C07D932A9589F6069497956795F7
:10193000379517951794E118F10A430B560BC90B0D
:10194000D00998F023957E9173957A3308F070E36F
:101950007C932013B8F77E9170617D9330F083956E
:1019600071E37D9370E32A95E1F71124EF90FF90E6
:101970000F911F91CF91DF91992787FD9095089541
:10198000DC01FC01672F71917723E1F7329704C0E6
:101990007C916D9370836291AE17BF07C8F3089571
:1019A000E89409C097FB3EF49095809570956195F9
:1019B0007F4F8F4F9F4F9923A9F0F92F96E9BB27AF
:1019C0009395F695879577956795B795F111F8CF2B
:1019D000FAF4BB0F11F460FF1BC06F5F7F4F8F4F96
:1019E0009F4F16C0882311F096E911C0772321F08C
:1019F0009EE8872F762F05C0662371F096E8862F24
:101A000070E060E02AF09A95660F771F881FDAF77A
:101A1000880F9695879597F90895990F0008550FA7
:101A2000AA0BE0E8FEEF16161706E807F907C0F064
:101A300012161306E407F50798F0621B730B840B6C
:101A4000950B39F40A2661F0232B242B252B21F446
:101A500008950A2609F4A140A6958FEF811D811DE6
:101A600008950E94440D0C94B50D0E94A70D38F006
:101A70000E94AE0D20F0952311F00C949E0D0C9455
:101A8000A40D11240C94E90D0E94C60D70F3959FCE
:101A9000C1F3950F50E0551F629FF001729FBB2765
:101AA000F00DB11D639FAA27F00DB11DAA1F649F01
:101AB0006627B00DA11D661F829F2227B00DA11DB4
:101AC000621F739FB00DA11D621F839FA00D611D3A
:101AD000221F749F3327A00D611D231F849F600D5B
:101AE000211D822F762F6A2F11249F5750409AF084
:101AF000F1F088234AF0EE0FFF1FBB1F661F771F10
:101B0000881F91505040A9F79E3F510580F00C94DA
:101B10009E0D0C94E90D5F3FE4F3983ED4F3869557
:101B200077956795B795F795E7959F5FC1F7FE2B7A
:101B3000880F911D9695879597F9089597F99F6756
:101B400080E870E060E008959FEF80EC0895002445
:101B50000A941616170618060906089500240A9412
:101B600012161306140605060895092E0394000C98
:101B700011F4882352F0BB0F40F4BF2B11F460FF27
:101B800004C06F5F7F4F8F4F9F4F089557FD905850
:101B9000440F551F59F05F3F71F04795880F97FB31
:101BA000991F61F09F3F79F08795089512161306EB
:101BB0001406551FF2CF4695F1DF08C0161617061A
:101BC0001806991FF1CF869571056105089408954F
:101BD000E894BB2766277727CB0197F90895052E50
:101BE00097FB1EF400940E94060E57FD07D00E943A
:101BF0000E0E07FC03D04EF40C94060E5095409543
:101C0000309521953F4F4F4F5F4F089590958095A8
:101C1000709561957F4F8F4F9F4F0895A1E21A2EC7
:101C2000AA1BBB1BFD010DC0AA1FBB1FEE1FFF1F80
:101C3000A217B307E407F50720F0A21BB30BE40BD0
:101C4000F50B661F771F881F991F1A9469F7609517
:101C50007095809590959B01AC01BD01CF010895D1
:101C6000A29FB001B39FC001A39F700D811D1124DD
:101C7000911DB29F700D811D1124911D08950E9428
:101C80000D0D08F48FEF0895EE0FFF1F881F8BBF17
:101C90000790F691E02D19940E94300EB7FF089539
:101CA000821B930B08950F931F93CF93DF93823082
:101CB000910510F482E090E0E0911A03F0911B038B
:101CC00030E020E0B0E0A0E0309799F42115310534
:101CD00009F44AC0281B390B24303105D8F58A8114
:101CE0009B816115710589F1FB0193838283FE015C
:101CF00011C0408151810281138148175907E0F0DA
:101D00004817590799F4109761F012960C9312979F
:101D100013961C933296CF01DF91CF911F910F91B3
:101D2000089500931A0310931B03F4CF2115310576
:101D300051F04217530738F0A901DB019A01BD01A8
:101D4000DF01F801C1CFEF01F9CF90931B0380931E
:101D50001A03CDCFFE01E20FF31F8193919322501E
:101D6000310939832883D7CF209118033091190383
:101D7000232B41F420910202309103023093190386
:101D800020931803209100023091010221153105A2
:101D900041F42DB73EB74091040250910502241B37
:101DA000350BE0911803F0911903E217F307A0F443
:101DB0002E1B3F0B2817390778F0AC014E5F5F4FA1
:101DC0002417350748F04E0F5F1F509319034093B7
:101DD0001803819391939FCFF0E0E0E09CCFCF93E5
:101DE000DF930097E9F0FC01329713821282A091F1
:101DF0001A03B0911B03ED0130E020E01097A1F42D
:101E000020813181820F931F209118033091190393
:101E10002817390709F061C0F0931903E0931803FC
:101E2000DF91CF910895EA01CE17DF07E8F54A81E7
:101E30005B819E0141155105B1F7E901FB83EA83FE
:101E400049915991C40FD51FEC17FD0761F48081AA
:101E500091810296840F951FE9019983888382817D
:101E600093819B838A83F0E0E0E012968D919C91B0
:101E700013970097B9F52D913C911197CD010296DA
:101E8000820F931F209118033091190328173907E7
:101E900039F6309751F510921B0310921A03B09344
:101EA0001903A0931803BCCFD383C283408151810F
:101EB000840F951FC817D90761F44E5F5F4F888163
:101EC0009981480F591F518340838A819B81938355
:101ED00082832115310509F0B0CFF0931B03E09305
:101EE0001A039ECFFD01DC01C0CF13821282D7CF2F
:101EF0004F925F926F927F928F929F92AF92BF921A
:101F0000CF92DF92EF92FF920F931F93CF93DF93C5
:101F10008C01009799F4CB01DF91CF911F910F9124
:101F2000FF90EF90DF90CF90BF90AF909F908F90F9
:101F30007F906F905F904F900C94530EFC01E60FD2
:101F4000F71F9C0122503109E217F30708F4AEC0D5
:101F5000D901CD91DC911197C617D70720F1C53073
:101F6000D10578F0CE0104978617970750F0C61B6D
:101F7000D70B2297C193D1936D937C93CF010E948D
:101F8000EF0EC801DF91CF911F910F91FF90EF905D
:101F9000DF90CF90BF90AF909F908F907F906F9089
:101FA0005F904F9008955B01AC1ABD0A4C018C0EF6
:101FB0009D1EA0911A03B0911B03512C412CF12CB2
:101FC000E12C109731F58091180390911903881531
:101FD000990509F05CC04616570608F058C0809174
:101FE000000290910102009741F48DB79EB7409195
:101FF000040250910502841B950BE817F90708F0BD
:1020000055C0F0931903E0931803F90171836083BD
:10201000B8CF8D919C91119712966C901297139650
:102020007C901397A815B90559F56C0142E0C40ED0
:10203000D11CCA14DB0420F1AC014A195B09DA0196
:102040001296159780F06282738251834083D90182
:102050006D937C93E114F10471F0D7011396FC9316
:10206000EE9312978ECF22968C0F9D1FF9019183CC
:102070008083F301EFCFF0931B03E0931A0381CF2A
:102080004816590608F42C017D01D3019ACFCB01E3
:102090000E94530E7C01009749F0AE01B8010E94E6
:1020A0005910C8010E94EF0E87016BCF10E000E0CD
:1020B00068CFFB01DC0102C001900D9241505040FD
:1020C000D8F70895FB01DC0101900D920020E1F7A3
:0620D0000895F894FFCF13
:1020D60000001C038000000000007A06150343037D
:1020E600420354616B696C6920446567696C210021
:1020F600456D6E69796574204B656D657269004D35
:102106006F746F722043616C69736D617A005579E3
:102116006172693A204B617069204163696B004DB9
:102126006F746F722043616C6973616D617A0059D7
:10213600616B6974204269747469004D6F746F72C3
:102146002043616C69737469004B6C696D61204151
:1021560063696C646900536963616B6C696B3A20EF
:102166000043004D6F746F72204475726475005998
:10217600616BC4B1742042697474692100417A208C
:1021860025004B726974696B3A2059616B6974203A
:1021960000447573756B20250055796172693A2084
:1021A60059616B6974004661726C617220416369A2
:1021B6006B004661726C6172204B6170616E64697E
:0221C600000017
:00000001FF
